:100000000C945D000C9485000C9485000C94850084
:100010000C9485000C9485000C9485000C9485004C
:100020000C9485000C9485000C9485000C9485003C
:100030000C9485000C9485000C9485000C9485002C
:100040000C94EF020C9485000C94BD020C94970262
:100050000C9485000C9485000C9485000C9485000C
:100060000C9485000C9485000000000024002700FB
:100070002A0000000000250028002B0004040404CE
:100080000404040402020202020203030303030342
:10009000010204081020408001020408102001021F
:1000A00004081020000000080002010000030407FB
:1000B0000000000000000000390311241FBECFEF34
:1000C000D8E0DEBFCDBF11E0A0E0B1E0ECEEFCE097
:1000D00002C005900D92A034B107D9F722E0A0E448
:1000E000B1E001C01D92A633B207E1F710E0CDE503
:1000F000D0E004C02197FE010E946906CC35D107EB
:10010000C9F70E9478030C9474060C940000E1E592
:10011000F1E0A089B18982E08C93A485B5851C9219
:10012000A685B7858FEC8C93108EA489B58986E05F
:100130008C93A289B3898C9180618C93A289B389B5
:100140008C9188608C93A289B3898C9180688C9300
:100150000288F389E02D80818F7D80830895EFEA06
:10016000F0E09491EBE9F0E02491E7E8F0E0E4912D
:10017000EE2309F43CC0992339F1933091F038F41F
:100180009130A9F0923001F594B59F7D12C097305F
:1001900091F09830A1F09430B9F4909180009F7D57
:1001A00003C0909180009F77909380000DC094B51C
:1001B0009F7794BD09C09091B0009F7703C0909144
:1001C000B0009F7D9093B000F0E0EE0FFF1FEE585F
:1001D000FF4FA591B4919FB7F894811104C08C9101
:1001E0002095282302C0EC912E2B2C939FBF0895BD
:1001F000CF92DF92EF92FF920F931F93CF93DF93F3
:100200006C017A018B01C0E0D0E0CE15DF0581F0F2
:10021000D8016D918D01D601ED91FC910190F08195
:10022000E02DC6010995892B11F02196EECF7E01B4
:10023000C701DF91CF911F910F91FF90EF90DF9059
:10024000CF900895089580E090E00895FC01538DCB
:10025000448D252F30E0842F90E0821B930B5417A0
:1002600010F0CF96089501970895FC01918D828D2D
:10027000981761F0828DDF01A80FB11D5D968C91FA
:10028000928D9F5F9F73928F90E008958FEF9FEF05
:100290000895FC01918D828D981731F0828DE80FC1
:1002A000F11D858D90E008958FEF9FEF0895FC017B
:1002B000918D228D892F90E0805C9F4F821B910948
:1002C0008F739927089581E591E00E94570121E0FD
:1002D000892B09F420E0822F0895FC01848DDF0131
:1002E000A80FB11DA35ABF4F2C91848D90E00196A9
:1002F0008F739927848FA689B7892C93A089B18998
:100300008C91837080648C93938D848D981306C038
:100310000288F389E02D80818F7D80830895EF929C
:10032000FF920F931F93CF93DF93EC0181E0888FAF
:100330009B8D8C8D981305C0E889F989808185FD96
:1003400026C0F62E0B8D10E00F5F1F4F0F73112785
:10035000E02E8C8DE8120CC00FB607FCFACFE889AE
:10036000F989808185FFF5CFCE010E946D01F1CF23
:100370008B8DFE01E80FF11DE35AFF4FF0829FB70E
:10038000F8940B8FEA89FB89808180620AC09FB74D
:10039000F894EE89FF896083E889F9898081837008
:1003A000806480839FBF81E090E0DF91CF911F91B7
:1003B0000F91FF90EF900895CF93DF93EC01888D1C
:1003C0008823C9F0EA89FB89808185FD05C0A88959
:1003D000B9898C9186FD0FC00FB607FCF5CF8081DF
:1003E00085FFF2CFA889B9898C9185FFEDCFCE0129
:1003F0000E946D01E7CFDF91CF91089580E090E0FA
:10040000892B29F00E94630181110C94000008954A
:100410002FB7F89460914501709146018091470192
:10042000909148012FBF08950E946F0661157105D4
:1004300079F0FB0101900020E9F73197AF01461BED
:10044000570BDC01ED91FC910280F381E02D0994C2
:1004500080E090E008958F929F92AF92BF92EF92CA
:10046000FF920F931F93CF93DF93CDB7DEB7A19782
:100470000FB6F894DEBF0FBECDBF7C01FA01CB01F1
:1004800019A2223008F42AE08E010F5D1F4F822E40
:10049000912CA12CB12CBF01A50194010E94120640
:1004A000F901CA01015011096A3014F4605D01C0FC
:1004B000695CD8016C93232B242B252B61F7B801A1
:1004C000C7010E941602A1960FB6F894DEBF0FBEB8
:1004D000CDBFDF91CF911F910F91FF90EF90BF9013
:1004E000AF909F908F900895CF92DF92EF92FF92FE
:1004F000CF93DF936B017C016DE281E591E00E9477
:100500008F01EC0144275527BA014C195D096E098A
:100510007F092AE081E591E00E942B028C0F9D1F4C
:10052000DF91CF91FF90EF90DF90CF9008951F92D1
:100530000F920FB60F9211242F933F934F935F9317
:100540006F937F938F939F93AF93BF93EF93FF939B
:1005500081E591E00E946D01FF91EF91BF91AF9114
:100560009F918F917F916F915F914F913F912F91CB
:100570000F900FBE0F901F9018951F920F920FB6FD
:100580000F9211242F938F939F93EF93FF93E091FA
:100590006101F09162018081E0916701F091680151
:1005A00082FD12C0908180916A018F5F8F732091CC
:1005B0006B01821751F0E0916A01F0E0EF5AFE4FB3
:1005C000958F80936A0101C08081FF91EF919F9187
:1005D0008F912F910F900FBE0F901F9018951F9223
:1005E0000F920FB60F9211242F933F938F939F93E7
:1005F000AF93BF938091450190914601A09147012F
:10060000B09148013091440123E0230F2D3720F4AD
:100610000196A11DB11D05C026E8230F0296A11D5C
:10062000B11D209344018093450190934601A0930E
:100630004701B09348018091400190914101A09100
:100640004201B09143010196A11DB11D809340016B
:1006500090934101A0934201B0934301BF91AF91A8
:100660009F918F913F912F910F900FBE0F901F90F0
:100670001895E1E5F1E01382128288EE93E0A0E0A4
:10068000B0E084839583A683B78384E091E091836F
:10069000808385EC90E09587848784EC90E0978751
:1006A000868780EC90E0918B808B81EC90E0938B3F
:1006B000828B82EC90E0958B848B86EC90E0978B1C
:1006C000868B118E128E138E148EEEEEF1E0168252
:1006D0001782108611861286138614861586168652
:1006E0001786108A118A128A138A148A158A089525
:1006F000789484B5826084BD84B5816084BD85B5FD
:10070000826085BD85B5816085BD80916E00816008
:1007100080936E00109281008091810082608093AE
:1007200081008091810081608093810080918000B0
:100730008160809380008091B10084608093B100DB
:100740008091B00081608093B00080917A008460D5
:1007500080937A0080917A00826080937A00809101
:100760007A00816080937A0080917A00806880931B
:100770007A001092C100109232021092330210924D
:100780003402109235021092F0011092F101109291
:10079000F2011092F3010E9408026B017C014B01EF
:1007A0005C0128EB820E2BE0921EA11CB11C0E9462
:1007B00008026C157D058E059F0528F086169706A4
:1007C000A806B906A0F781E591E0909331028093E5
:1007D00030020E9487000E9408026093F00170932B
:1007E000F1018093F2019093F30162E171E0809155
:1007F0003002909131020E9416020E9408026B01A1
:100800007C014B015C013AE0830E911CA11CB11CE0
:100810000E9408026C157D058E059F0528F086163E
:100820009706A806B906A0F781E0809304020E940B
:10083000870088248A9453E0952EA12CB12C6BE973
:10084000262E60E0362E07E810E0CFEAD0E00E94C6
:100850000802672B682B692B41F40E940802623062
:1008600071058105910508F414C10E940802C09029
:100870004D01D0904E01E0904F01F09050016C1569
:100880007D058E059F0540F460934D0170934E01E8
:1008900080934F0190935001C0904D01D0904E0134
:1008A000E0904F01F09050019B01AC012C193D09E3
:1008B0004E095F0969017A013AEFC316D104E104D8
:1008C000F10408F4E6C060934D0170934E018093EB
:1008D0004F019093500184EF91E0A0E0B0E080934D
:1008E000FC019093FD01A093FE01B093FF011092D3
:1008F00000021092010210920202109203028091F3
:10090000F4019091F501A091F601B091F701809367
:10091000F8019093F901A093FA01B093FB010E94B2
:1009200008026093F4017093F5018093F6019093AF
:10093000F7010E9408026093F0017093F101809327
:10094000F2019093F3010E9408026B017C0164E2C2
:1009500071E080913002909131020E9416022AE0EB
:1009600041E050E060E070E080913002909131020F
:100970000E942B026BE271E0809130029091310273
:100980000E9416022AE0B701A601809130029091E0
:1009900031020E942B026EE371E08091300290914F
:1009A00031020E9416028091F4019091F501A0910C
:1009B000F601B091F701B701A601481B590B6A0B6C
:1009C0007B0B2AE080913002909131020E942B0231
:1009D0006EE371E080913002909131020E94160224
:1009E0004091F4015091F5016091F6017091F70189
:1009F0008091F8019091F901A091FA01B091FB0169
:100A0000481B590B6A0B7B0B2AE0809130029091B6
:100A100031020E942B026FE271E0809130029091CE
:100A200031020E9416020E940802AB01BC012AE0BA
:100A300080913002909131020E942B02E0903002AE
:100A4000F090310261E371E0C7010E94160261E299
:100A500071E0C7010E9416020E9408026B017C012E
:100A60002B013C0192E0490E511C611C711C0E943B
:100A700008026C157D058E059F0508F0CCC00E940C
:100A800008026093F4017093F5018093F60190934E
:100A9000F701A0E4A0937C0080917A0080648093A9
:100AA0007A0080917A0086FDFCCF809178002091B9
:100AB000790090E0922B90934C0180934B0168E376
:100AC00071E081E591E00E94160240914B01509146
:100AD0004C01052E000C660B770B77FF05C0CB0190
:100AE000BA010E94740205C02AE081E591E00E94EB
:100AF0002B02A0914B01B0914C0124E630E00E9402
:100B00006206A50194010E943406BA01A90150931E
:100B10004A014093490177FF05C0CB01BA010E9409
:100B2000740205C02AE081E591E00E942B0261E297
:100B300071E081E591E00E94160220914901309117
:100B40004A01F1016491F8018491882399F090E0C1
:100B5000880F991FFC01E859FF4FA591B491FC0142
:100B6000EE58FF4F459154919FB7F8948C91682BA4
:100B70006C939FBF2115310511F480E004C02F3F15
:100B8000310521F481E00E94AF0042C0FE01849152
:100B90008330F9F048F48130B9F08230A1F584B5A2
:100BA000806284BD28BD34C08730E9F0883019F1F7
:100BB000843049F58091800080628093800030937A
:100BC0008B0020938A0024C084B5806884BD27BD33
:100BD0001FC08091800080688093800030938900DE
:100BE0002093880015C08091B00080688093B00089
:100BF0002093B3000DC08091B00080628093B0005C
:100C00002093B40005C0203831050CF0BBCFB5CF20
:100C10000E94FE011CCE461657066806790608F0AB
:100C200026CF2DCFA1E21A2EAA1BBB1BFD010DC0A2
:100C3000AA1FBB1FEE1FFF1FA217B307E407F5078C
:100C400020F0A21BB30BE40BF50B661F771F881F68
:100C5000991F1A9469F760957095809590959B01FE
:100C6000AC01BD01CF010895052E97FB1EF4009441
:100C70000E944B0657FD07D00E94120607FC03D0C6
:100C80004EF40C944B0650954095309521953F4F6E
:100C90004F4F5F4F089590958095709561957F4F68
:100CA0008F4F9F4F0895A29FB001B39FC001A39F94
:100CB000700D811D1124911DB29F700D811D112495
:100CC000911D08950E945306B7FF0895821B930B50
:100CD0000895EE0FFF1F0590F491E02D099481E037
:0C0CE00090E0F8940C947406F894FFCF98
:100CEC00000000008F01F8002601DC0157013501DE
:100CFC004901564D4450565F317C315F564D44503E
:100D0C00560D0A00564D4450455F003A323A007C6D
:100D1C00005F564D4450450076616C7565203A0075
:00000001FF
