:100000000C945D000C9485000C9485000C94850084
:100010000C9485000C9485000C9485000C9485004C
:100020000C9485000C9485000C9485000C9485003C
:100030000C9485000C9485000C9485000C9485002C
:100040000C9482030C9485000C9450030C942A03A6
:100050000C9485000C9485000C9485000C9485000C
:100060000C9485000C94850000000008000201003B
:100070000003040700000000000000000000000072
:10008000250028002B0000000000240027002A0083
:10009000040404040404040402020202020203032E
:1000A0000303030301020408102040800102040836
:1000B0001020010204081020CC0311241FBECFEF32
:1000C000D8E0DEBFCDBF22E0A8E3B1E001C01D92C1
:1000D000AA32B207E1F711E0A0E0B1E0EEEBFDE0FB
:1000E00002C005900D92A833B107D9F710E0CDE515
:1000F000D0E004C02197FE010E94D206CC35D10782
:10010000C9F70E940B040C94DD060C94000090E0EB
:10011000FC01EC55FF4F2491FC01E057FF4F849107
:10012000882399F090E0880F991FFC01EA57FF4F50
:10013000A591B491FC01E458FF4F859194918FB73C
:10014000F894EC91E22BEC938FBF0895CF92DF925D
:10015000EF92FF920F931F93CF93DF936C017A017D
:100160008B01C0E0D0E0CE15DF0581F0D8016D91A4
:100170008D01D601ED91FC910190F081E02DC60139
:100180000995892B11F02196EECF7E01C701DF91F1
:10019000CF911F910F91FF90EF90DF90CF90089536
:1001A000089580E090E00895FC01538D448D252F43
:1001B00030E0842F90E0821B930B541710F0CF9601
:1001C000089501970895FC01918D828D981761F033
:1001D000828DDF01A80FB11D5D968C91928D9F5F7E
:1001E0009F73928F90E008958FEF9FEF0895FC0129
:1001F000918D828D981731F0828DE80FF11D858DDC
:1002000090E008958FEF9FEF0895FC01918D228D6E
:10021000892F90E0805C9F4F821B91098F739927F3
:10022000089585E491E00E94050121E0892B09F4FD
:1002300020E0822F0895FC01848DDF01A80FB11DFD
:10024000A35ABF4F2C91848D90E001968F7399270C
:10025000848FA689B7892C93A089B1898C918370EA
:1002600080648C93938D848D981306C00288F389E3
:10027000E02D80818F7D80830895EF92FF920F9310
:100280001F93CF93DF93EC0181E0888F9B8D8C8D42
:10029000981305C0E889F989808185FD26C0F62E6E
:1002A0000B8D10E00F5F1F4F0F731127E02E8C8D09
:1002B000E8120CC00FB607FCFACFE889F9898081F3
:1002C00085FFF5CFCE010E941B01F1CF8B8DFE0182
:1002D000E80FF11DE35AFF4FF0829FB7F8940B8FA0
:1002E000EA89FB89808180620AC09FB7F894EE8911
:1002F000FF896083E889F9898081837080648083C5
:100300009FBF81E090E0DF91CF911F910F91FF900F
:10031000EF900895CF93DF93EC01888D8823C9F087
:10032000EA89FB89808185FD05C0A889B9898C91FE
:1003300086FD0FC00FB607FCF5CF808185FFF2CF99
:10034000A889B9898C9185FFEDCFCE010E941B0150
:10035000E7CFDF91CF91089580E090E0892B29F0DD
:100360000E94110181110C940000089590E0FC019D
:10037000E859FF4F2491FC01EC55FF4F3491FC01EB
:10038000E057FF4FE491EE2309F43CC0222339F1FA
:10039000233091F038F42130A9F0223001F584B5F2
:1003A0008F7D12C0273091F02830A1F02430B9F4AD
:1003B000809180008F7D03C0809180008F77809333
:1003C00080000DC084B58F7784BD09C08091B000D6
:1003D0008F7703C08091B0008F7D8093B000F0E0F4
:1003E000EE0FFF1FE458FF4FA591B4919FB7F8940B
:1003F000611104C08C913095382302C0EC913E2BE2
:100400003C939FBF08951F93CF93DF93182FEB0169
:100410000E948700209711F460E004C0CF3FD1050F
:1004200039F461E0812FDF91CF911F910C94B601D7
:10043000E12FF0E0E859FF4FE491E330F9F048F4A0
:10044000E130B9F0E230A1F584B5806284BDC8BD69
:1004500034C0E730E9F0E83019F1E43049F5809133
:100460008000806280938000D0938B00C0938A00CC
:1004700024C084B5806884BDC7BD1FC08091800042
:10048000806880938000D0938900C093880015C055
:100490008091B00080688093B000C093B3000DC01D
:1004A0008091B00080628093B000C093B40005C01A
:1004B000C038D1050CF0B5CFAFCFDF91CF911F91F0
:1004C00008953FB7F89480913D0190913E01A0912D
:1004D0003F01B091400126B5A89B05C02F3F19F000
:1004E0000196A11DB11D3FBFBA2FA92F982F8827B4
:1004F000820F911DA11DB11DBC01CD0142E0660F0F
:10050000771F881F991F4A95D1F708958F929F9260
:10051000AF92BF92CF92DF92EF92FF920E94610260
:100520004B015C0180EDC82E87E0D82EE12CF12C28
:100530000E946102DC01CB0188199909AA09BB0953
:10054000883E9340A105B10598F321E0C21AD10875
:10055000E108F10888EE880E83E0981EA11CB11C0A
:10056000C114D104E104F10419F7FF90EF90DF907A
:10057000CF90BF90AF909F908F9008952FB7F89431
:100580006091390170913A0180913B0190913C0159
:100590002FBF08956115710579F0FB0101900020CE
:1005A000E9F73197AF01461B570BDC01ED91FC9148
:1005B0000280F381E02D099480E090E008958F920D
:1005C0009F92AF92BF92EF92FF920F931F93CF93A0
:1005D000DF93CDB7DEB7A1970FB6F894DEBF0FBE9D
:1005E000CDBF7C01FA01CB0119A2223008F42AE028
:1005F0008E010F5D1F4F822E912CA12CB12CBF01BB
:10060000A50194010E94B006F901CA010150110927
:100610006A3014F4605D01C0695CD8016C93232BCF
:10062000242B252B61F7B801C7010E94CA02A196AD
:100630000FB6F894DEBF0FBECDBFDF91CF911F91F3
:100640000F91FF90EF90BF90AF909F908F90089583
:100650000E94D8061F920F920FB60F9211242F936B
:100660003F934F935F936F937F938F939F93AF933A
:10067000BF93EF93FF9385E491E00E941B01FF91EC
:10068000EF91BF91AF919F918F917F916F915F910A
:100690004F913F912F910F900FBE0F901F90189583
:1006A0001F920F920FB60F9211242F938F939F9347
:1006B000EF93FF93E0915501F09156018081E09115
:1006C0005B01F0915C0182FD12C0908180915E011E
:1006D0008F5F8F7320915F01821751F0E0915E016F
:1006E000F0E0EB5BFE4F958F80935E0101C080814F
:1006F000FF91EF919F918F912F910F900FBE0F90CF
:100700001F9018951F920F920FB60F9211242F93DE
:100710003F938F939F93AF93BF93809139019091B3
:100720003A01A0913B01B0913C013091380123E0A6
:10073000230F2D3720F40196A11DB11D05C026E819
:10074000230F0296A11DB11D20933801809339011A
:1007500090933A01A0933B01B0933C0180913D01FD
:1007600090913E01A0913F01B09140010196A11DE1
:10077000B11D80933D0190933E01A0933F01B09342
:100780004001BF91AF919F918F913F912F910F9019
:100790000FBE0F901F901895E5E4F1E013821282CE
:1007A00088EE93E0A0E0B0E084839583A683B783CE
:1007B00084E091E09183808385EC90E09587848745
:1007C00084EC90E09787868780EC90E0918B808B1B
:1007D00081EC90E0938B828B82EC90E0958B848B04
:1007E00086EC90E0978B868B118E128E138E148E72
:1007F000E2EEF1E0168217821086118612861386C9
:100800001486158616861786108A118A128A138A0C
:10081000148A158A0895789484B5826084BD84B55D
:10082000816084BD85B5826085BD85B5816085BDEB
:1008300080916E00816080936E00109281008091A3
:10084000810082608093810080918100816080932B
:100850008100809180008160809380008091B10050
:1008600084608093B1008091B00081608093B0007B
:1008700080917A00846080937A0080917A0082600F
:1008800080937A0080917A00816080937A008091D1
:100890007A00806880937A001092C100109226023C
:1008A0001092270210922802109229021092E4015D
:1008B0001092E5011092E6011092E7010E94BE023B
:1008C0006B017C014B015C0128EB820E2BE0921E38
:1008D000A11CB11C0E94BE026C157D058E059F05F2
:1008E00028F086169706A806B906A0F785E491E0D9
:1008F0009093250280932402E0915501F0915601D6
:1009000082E08083E0915101F09152011082E091E8
:100910005301F091540180E1808310925D01E091D8
:100920005901F0915A0186E08083E0915701F091DE
:100930005801808180618083E0915701F0915801D6
:10094000808188608083E0915701F0915801808117
:1009500080688083E0915701F091580180818F7DFC
:1009600080830E94BE026093E4017093E50180934E
:10097000E6019093E70162E171E080912402909199
:1009800025020E94CA020E94BE026B017C014B013B
:100990005C013AE0830E911CA11CB11C0E94BE02B6
:1009A0006C157D058E059F0528F086169706A8060E
:1009B000B906A0F781E08093F8018CE00E948700DF
:1009C00089E00E94870088E00E9487008AE00E94F8
:1009D000870087E00E94870086E00E94870085E00C
:1009E0000E94870084EF882E99249394A12CB12C27
:1009F0000E94BE02672B682B692B41F40E94BE0245
:100A0000623071058105910508F410C10E94BE0293
:100A1000C0904101D0904201E0904301F090440128
:100A20006C157D058E059F0540F460934101709320
:100A300042018093430190934401C0904101D090C2
:100A40004201E0904301F09044019B01AC012C195C
:100A50003D094E095F0969017A013AEFC316D104D5
:100A6000E104F10408F4E2C0609341017093420193
:100A700080934301909344018092F0019092F101A0
:100A8000A092F201B092F3011092F4011092F501DC
:100A90001092F6011092F7018091E8019091E9011E
:100AA000A091EA01B091EB018093EC019093ED01EC
:100AB000A093EE01B093EF010E94BE026093E801A3
:100AC0007093E9018093EA019093EB010E94BE02CA
:100AD0006093E4017093E5018093E6019093E70150
:100AE0000E94BE026B017C0164E271E080912402ED
:100AF000909125020E94CA022AE041E050E060E0A5
:100B000070E080912402909125020E94DF026BE246
:100B100071E080912402909125020E94CA022AE08D
:100B2000B701A60180912402909125020E94DF0264
:100B30006DE271E080912402909125020E94CA0228
:100B40008091E8019091E901A091EA01B091EB0157
:100B5000B701A601481B590B6A0B7B0B2AE0809159
:100B60002402909125020E94DF026DE271E08091E3
:100B70002402909125020E94CA024091E8015091FE
:100B8000E9016091EA017091EB018091EC01909193
:100B9000ED01A091EE01B091EF01481B590B6A0BDA
:100BA0007B0B2AE080912402909125020E94DF02B3
:100BB0006FE271E080912402909125020E94CA02A6
:100BC0000E94BE02AB01BC012AE0809124029091F8
:100BD00025020E94DF02E0902402F090250261E3EA
:100BE00071E0C7010E94CA0261E271E0C7010E9480
:100BF000CA020E94BE026B017C012B013C0142E053
:100C0000440E511C611C711C0E94BE026C157D05B6
:100C10008E059F0508F09DC00E94BE026093E8010A
:100C20007093E9018093EA019093EB0160E089E021
:100C30000E94B60161E088E00E94B60164E670E0BF
:100C40008AE00E94030260E087E00E94B60161E052
:100C500086E00E94B60164E670E085E00E9403022F
:100C60000E94860261E089E00E94B60160E088E0AF
:100C70000E94B60164E670E08AE00E94030261E02F
:100C800087E00E94B60160E086E00E94B60164E65B
:100C900070E085E00E9403020E94860260E089E025
:100CA0000E94B60160E088E00E94B60160E070E05A
:100CB0008AE00E94030260E087E00E94B60161E0E2
:100CC00086E00E94B60164E670E085E00E940302BF
:100CD0000E94860260E089E00E94B60161E088E03F
:100CE0000E94B60164E670E08AE00E94030260E0C0
:100CF00087E00E94B60160E086E00E94B60160E0F5
:100D000070E085E00E9403020E94860260E089E0B4
:100D10000E94B60160E088E00E94B60160E070E0E9
:100D20008AE00E94030260E087E00E94B60160E072
:100D300086E00E94B60160E070E085E00E94030258
:100D40000E94860261E08CE00E94B6010E94AC0124
:100D50004FCE461657066806790608F055CF5CCF89
:100D6000A1E21A2EAA1BBB1BFD010DC0AA1FBB1FAF
:100D7000EE1FFF1FA217B307E407F50720F0A21B21
:100D8000B30BE40BF50B661F771F881F991F1A948E
:100D900069F760957095809590959B01AC01BD01B8
:100DA000CF010895EE0FFF1F0590F491E02D0994F7
:0E0DB00081E090E0F8940C94DD06F894FFCFFB
:100DBE00000000003D01A600D4008A010501E300F9
:100DCE00F700564D4450565F317C315F564D4450BE
:100DDE00560D0A00564D4450455F003A323A007C9B
:080DEE00005F564D4450450022
:107E0000112484B714BE81FFF0D085E080938100F7
:107E100082E08093C00088E18093C10086E0809377
:107E2000C20080E18093C4008EE0C9D0259A86E02C
:107E300020E33CEF91E0309385002093840096BBD3
:107E4000B09BFECF1D9AA8958150A9F7CC24DD24C4
:107E500088248394B5E0AB2EA1E19A2EF3E0BF2EE7
:107E6000A2D0813461F49FD0082FAFD0023811F036
:107E7000013811F484E001C083E08DD089C08234E0
:107E800011F484E103C0853419F485E0A6D080C0E4
:107E9000853579F488D0E82EFF2485D0082F10E0AE
:107EA000102F00270E291F29000F111F8ED06801E7
:107EB0006FC0863521F484E090D080E0DECF843638
:107EC00009F040C070D06FD0082F6DD080E0C81688
:107ED00080E7D80618F4F601B7BEE895C0E0D1E017
:107EE00062D089930C17E1F7F0E0CF16F0E7DF06D8
:107EF00018F0F601B7BEE89568D007B600FCFDCFD4
:107F0000A601A0E0B1E02C9130E011968C91119780
:107F100090E0982F8827822B932B1296FA010C0160
:107F200087BEE89511244E5F5F4FF1E0A038BF0790
:107F300051F7F601A7BEE89507B600FCFDCF97BE46
:107F4000E89526C08437B1F42ED02DD0F82E2BD052
:107F50003CD0F601EF2C8F010F5F1F4F84911BD097
:107F6000EA94F801C1F70894C11CD11CFA94CF0C13
:107F7000D11C0EC0853739F428D08EE10CD085E9AC
:107F80000AD08FE07ACF813511F488E018D01DD067
:107F900080E101D065CF982F8091C00085FFFCCF94
:107FA0009093C60008958091C00087FFFCCF809118
:107FB000C00084FD01C0A8958091C6000895E0E648
:107FC000F0E098E1908380830895EDDF803219F02E
:107FD00088E0F5DFFFCF84E1DECF1F93182FE3DFCA
:107FE0001150E9F7F2DF1F91089580E0E8DFEE27F6
:047FF000FF270994CA
:027FFE00040479
:0400000300007E007B
:00000001FF