:100000000C9435000C945D000C945D000C945D0024
:100010000C945D000C945D000C945D000C945D00EC
:100020000C945D000C945D000C945D000C945D00DC
:100030000C945D000C945D000C945D000C945D00CC
:100040000C9480020C945D000C944E020C942802D7
:100050000C945D000C945D000C945D000C945D00AC
:100060000C945D000C945D00CA0211241FBECFEFFA
:10007000D8E0DEBFCDBF22E0A8E3B1E001C01D9211
:10008000A234B207E1F711E0A0E0B1E0ECE6FBE05A
:1000900002C005900D92A833B107D9F710E0C5E36F
:1000A000D0E004C02197FE010E94A905C433D10706
:1000B000C9F70E9409030C94B4050C940000EDE507
:1000C000F1E0A089B18982E08C93A485B5851C926A
:1000D000A685B7858FEC8C93108EA489B58986E0B0
:1000E0008C93A289B3898C9180618C93A289B38906
:1000F0008C9188608C93A289B3898C9180688C9351
:100100000288F389E02D80818F7D80830895CF92CE
:10011000DF92EF92FF920F931F93CF93DF936C01C7
:100120007A018B01C0E0D0E0CE15DF0581F0D80167
:100130006D918D01D601ED91FC910190F081E02D42
:10014000C6010995892B11F02196EECF7E01C701DA
:10015000DF91CF911F910F91FF90EF90DF90CF90A3
:100160000895089580E090E00895FC01538D448D3A
:10017000252F30E0842F90E0821B930B541710F052
:10018000CF96089501970895FC01918D828D98175F
:1001900061F0828DDF01A80FB11D5D968C91928D6B
:1001A0009F5F9F73928F90E008958FEF9FEF089568
:1001B000FC01918D828D981731F0828DE80FF11D31
:1001C000858D90E008958FEF9FEF0895FC01918D4C
:1001D000228D892F90E0805C9F4F821B91098F7345
:1001E000992708958DE591E00E94E60021E0892B92
:1001F00009F420E0822F0895FC01848DDF01A80F0F
:10020000B11DA35ABF4F2C91848D90E001968F733E
:100210009927848FA689B7892C93A089B1898C915D
:10022000837080648C93938D848D981306C00288AC
:10023000F389E02D80818F7D80830895EF92FF9276
:100240000F931F93CF93DF93EC0181E0888F9B8DF9
:100250008C8D981305C0E889F989808185FD26C0B9
:10026000F62E0B8D10E00F5F1F4F0F731127E02E3E
:100270008C8DE8120CC00FB607FCFACFE889F9891B
:10028000808185FFF5CFCE010E94FC00F1CF8B8DE0
:10029000FE01E80FF11DE35AFF4FF0829FB7F8947B
:1002A0000B8FEA89FB89808180620AC09FB7F8942E
:1002B000EE89FF896083E889F98980818370806491
:1002C00080839FBF81E090E0DF91CF911F910F91DC
:1002D000FF90EF900895CF93DF93EC01888D8823F2
:1002E000C9F0EA89FB89808185FD05C0A889B989A3
:1002F0008C9186FD0FC00FB607FCF5CF808185FF7E
:10030000F2CFA889B9898C9185FFEDCFCE010E94EB
:10031000FC00E7CFDF91CF91089580E090E0892B3A
:1003200029F00E94F20081110C94000008953FB75B
:10033000F89480913D0190913E01A0913F01B091D0
:10034000400126B5A89B05C02F3F19F00196A11DBD
:10035000B11D3FBFBA2FA92F982F8827820F911D5B
:10036000A11DB11DBC01CD0142E0660F771F881FA2
:10037000991F4A95D1F708952FB7F89460913901E4
:1003800070913A0180913B0190913C012FBF0895FB
:100390000E94AF056115710579F0FB010190002005
:1003A000E9F73197AF01461B570BDC01ED91FC914A
:1003B0000280F381E02D099480E090E008958F920F
:1003C0009F92AF92BF92EF92FF920F931F93CF93A2
:1003D000DF93CDB7DEB7A1970FB6F894DEBF0FBE9F
:1003E000CDBF7C01FA01CB0119A2223008F42AE02A
:1003F0008E010F5D1F4F822E912CA12CB12CBF01BD
:10040000A50194010E945F05F901CA01015011097B
:100410006A3014F4605D01C0695CD8016C93232BD1
:10042000242B252B61F7B801C7010E94CA01A196B0
:100430000FB6F894DEBF0FBECDBFDF91CF911F91F5
:100440000F91FF90EF90BF90AF909F908F90089585
:100450001F920F920FB60F9211242F933F934F9339
:100460005F936F937F938F939F93AF93BF93EF931C
:10047000FF938DE591E00E94FC00FF91EF91BF9109
:10048000AF919F918F917F916F915F914F913F912C
:100490002F910F900FBE0F901F9018951F920F92E3
:1004A0000FB60F9211242F938F939F93EF93FF9387
:1004B000E0916D01F0916E018081E0917301F09106
:1004C000740182FD12C09081809176018F5F8F73DD
:1004D00020917701821751F0E0917601F0E0E35A24
:1004E000FE4F958F8093760101C08081FF91EF913F
:1004F0009F918F912F910F900FBE0F901F90189585
:100500001F920F920FB60F9211242F933F938F9348
:100510009F93AF93BF938091390190913A01A0913D
:100520003B01B0913C013091380123E0230F2D377E
:1005300020F40196A11DB11D05C026E8230F0296E7
:10054000A11DB11D209338018093390190933A0188
:10055000A0933B01B0933C0180913D0190913E01FD
:10056000A0913F01B09140010196A11DB11D809362
:100570003D0190933E01A0933F01B0934001BF9194
:10058000AF919F918F913F912F910F900FBE0F9040
:100590001F901895EDE5F1E01382128288EE93E04A
:1005A000A0E0B0E084839583A683B78384E091E0E4
:1005B0009183808385EC90E09587848784EC90E03C
:1005C0009787868780EC90E0918B808B81EC90E020
:1005D000938B828B82EC90E0958B848B86EC90E001
:1005E000978B868B118E128E138E148EEAEFF1E0AC
:1005F0001682178210861186128613861486158637
:1006000016861786108A118A128A138A148A158A06
:100610000895789484B5826084BD84B5816084BD7A
:1006200085B5826085BD85B5816085BD80916E0090
:10063000816080936E0010928100809181008260C1
:1006400080938100809181008160809381008091FE
:1006500080008160809380008091B10084608093ED
:10066000B1008091B00081608093B00080917A00E9
:10067000846080937A0080917A00826080937A000F
:1006800080917A00816080937A0080917A008068FE
:1006900080937A001092C10010923E0210923F02A5
:1006A00010924002109241021092FC011092FD0142
:1006B0001092FE011092FF010E94BC016B017C01AF
:1006C0004B015C0128EB820E2BE0921EA11CB11C99
:1006D0000E94BC016C157D058E059F0528F08616CD
:1006E0009706A806B906A0F78DE591E090933D0224
:1006F00080933C020E945F000E94BC016093FC0159
:100700007093FD018093FE019093FF0162E171E01F
:1007100080913C0290913D020E94CA010E94BC015E
:100720006B017C014B015C013AE0830E911CA11C22
:10073000B11C0E94BC016C157D058E059F0528F03B
:1007400086169706A806B906A0F781E080931002E6
:100750000E945F0034EFC32EDD24D394E12CF12CF2
:1007600010E4CAE0D0E00E94BC01672B682B692B23
:1007700041F40E94BC01623071058105910508F4C5
:1007800010C10E94BC018090590190905A01A09024
:100790005B01B0905C01681579058A059B0540F402
:1007A0006093590170935A0180935B0190935C01AF
:1007B0008090590190905A01A0905B01B0905C012B
:1007C0009B01AC01281939094A095B0949015A0101
:1007D0003AEF83169104A104B10408F4E2C06093D7
:1007E000590170935A0180935B0190935C01C09210
:1007F0000802D0920902E0920A02F0920B021092D3
:100800000C0210920D0210920E0210920F028091B3
:10081000000290910102A0910202B0910302809324
:10082000040290930502A0930602B09307020E946F
:10083000BC016093000270930102809302029093C6
:1008400003020E94BC016093FC017093FD01809340
:10085000FE019093FF010E94BC014B015C0164E228
:1008600071E080913C0290913D020E94CA012AE011
:1008700041E050E060E070E080913C0290913D02E8
:100880000E94DF016BE271E080913C0290913D0299
:100890000E94CA012AE0B501A40180913C02909116
:1008A0003D020E94DF016DE271E080913C02909177
:1008B0003D020E94CA018091000290910102A09124
:1008C0000202B0910302B501A401481B590B6A0B47
:1008D0007B0B2AE080913C0290913D020E94DF0157
:1008E0006DE271E080913C0290913D020E94CA014C
:1008F0004091000250910102609102027091030246
:100900008091040290910502A0910602B091070225
:10091000481B590B6A0B7B0B2AE080913C0290919B
:100920003D020E94DF016FE271E080913C029091F4
:100930003D020E94CA010E94BC01AB01BC012AE039
:1009400080913C0290913D020E94DF01A0903C0208
:10095000B0903D0261E371E0C5010E94CA0161E20D
:1009600071E0C5010E94CA010E94BC012B013C013B
:100970004B015C0142E0840E911CA11CB11C0E9441
:10098000BC01641575058605970508F091C00E94A5
:10099000BC01609300027093010280930202909365
:1009A00003028091550190915601880F991FFC0117
:1009B000EF5BFE4F209157013091580140815181EA
:1009C000241B350B309358012093570110937C0062
:1009D00020917A00206420937A0020917A0026FDED
:1009E000FCCF2091780040917900FC01EF5BFE4F35
:1009F00030E0342B31832083209155013091560112
:100A0000F901EE0FFF1FEF5BFE4F40815181809196
:100A1000570190915801840F951F9093580180932E
:100A200057012F5F3F4F2A3031052CF43093560188
:100A30002093550104C01092560110925501BE0139
:100A40000E9481054B01072E000CAA08BB0877FF06
:100A50000EC06DE28DE591E00E941E0144275527EE
:100A6000BA01481959096A097B092AE003C02AE03A
:100A7000B501A4018DE591E00E94DF0161E271E022
:100A80008DE591E00E94CA010E9497014B015C0133
:100A90000E949701DC01CB0188199909AA09BB09B9
:100AA000883E9340A105B10598F30E948D015BCE6D
:100AB00086169706A806B90608F061CF68CFA1E2AE
:100AC0001A2EAA1BBB1BFD010DC0AA1FBB1FEE1FC8
:100AD000FF1FA217B307E407F50720F0A21BB30B13
:100AE000E40BF50B661F771F881F991F1A9469F78F
:100AF00060957095809590959B01AC01BD01CF01EB
:100B0000089597FB072E16F4009407D077FD09D0BF
:100B10000E94950507FC05D03EF4909581959F4F66
:100B20000895709561957F4F0895AA1BBB1B51E1F5
:100B300007C0AA1FBB1FA617B70710F0A61BB70B4D
:100B4000881F991F5A95A9F780959095BC01CD01F2
:100B50000895EE0FFF1F0590F491E02D099481E0B8
:0C0B600090E0F8940C94B405F894FFCFDA
:100B6C00000000001E018700B5006B01E600C40008
:100B7C00D800564D4450565F317C315F564D445031
:100B8C00560D0A00564D4450455F003A323A007CEF
:080B9C00005F564D4450450076
:107E0000112484B714BE81FFF0D085E080938100F7
:107E100082E08093C00088E18093C10086E0809377
:107E2000C20080E18093C4008EE0C9D0259A86E02C
:107E300020E33CEF91E0309385002093840096BBD3
:107E4000B09BFECF1D9AA8958150A9F7CC24DD24C4
:107E500088248394B5E0AB2EA1E19A2EF3E0BF2EE7
:107E6000A2D0813461F49FD0082FAFD0023811F036
:107E7000013811F484E001C083E08DD089C08234E0
:107E800011F484E103C0853419F485E0A6D080C0E4
:107E9000853579F488D0E82EFF2485D0082F10E0AE
:107EA000102F00270E291F29000F111F8ED06801E7
:107EB0006FC0863521F484E090D080E0DECF843638
:107EC00009F040C070D06FD0082F6DD080E0C81688
:107ED00080E7D80618F4F601B7BEE895C0E0D1E017
:107EE00062D089930C17E1F7F0E0CF16F0E7DF06D8
:107EF00018F0F601B7BEE89568D007B600FCFDCFD4
:107F0000A601A0E0B1E02C9130E011968C91119780
:107F100090E0982F8827822B932B1296FA010C0160
:107F200087BEE89511244E5F5F4FF1E0A038BF0790
:107F300051F7F601A7BEE89507B600FCFDCF97BE46
:107F4000E89526C08437B1F42ED02DD0F82E2BD052
:107F50003CD0F601EF2C8F010F5F1F4F84911BD097
:107F6000EA94F801C1F70894C11CD11CFA94CF0C13
:107F7000D11C0EC0853739F428D08EE10CD085E9AC
:107F80000AD08FE07ACF813511F488E018D01DD067
:107F900080E101D065CF982F8091C00085FFFCCF94
:107FA0009093C60008958091C00087FFFCCF809118
:107FB000C00084FD01C0A8958091C6000895E0E648
:107FC000F0E098E1908380830895EDDF803219F02E
:107FD00088E0F5DFFFCF84E1DECF1F93182FE3DFCA
:107FE0001150E9F7F2DF1F91089580E0E8DFEE27F6
:047FF000FF270994CA
:027FFE00040479
:0400000300007E007B
:00000001FF