:100000000C9462000C948A000C948A000C948A0070
:100010000C948A000C948A000C948A000C948A0038
:100020000C948A000C948A000C948A000C948A0028
:100030000C948A000C948A000C948A000C948A0018
:100040000C94E9040C948A000C94B7040C94910469
:100050000C948A000C948A000C948A000C948A00F8
:100060000C948A000C948A000000000024002700F1
:100070002A0000000000250028002B0000000000DE
:1000800023002600290004040404040404040202DA
:100090000202020203030303030301020408102007
:1000A0004080010204081020010204081020000012
:1000B0000008000201000003040700000000000027
:1000C0000000330511241FBECFEFD8E0DEBFCDBF47
:1000D00022E0A6E5B1E001C01D92AE34B207E1F71F
:1000E00011E0A0E0B1E0E6E3F5E102C005900D9279
:1000F000A635B107D9F710E0C2E6D0E004C02197D9
:10010000FE010E948E0AC136D107C9F70E948605FA
:100110000C94990A0C940000E3E6F1E0A089B189FF
:1001200082E08C93A485B5851C92A685B7858FEC5B
:100130008C93108EA489B58986E08C93A289B389AB
:100140008C9180618C93A289B3898C9188608C9307
:10015000A289B3898C9180688C930288F389E02D01
:1001600080818F7D80830895CF92DF92EF92FF92FE
:100170000F931F93CF93DF936C017A018B01C0E043
:10018000D0E0CE15DF0581F0D8016D918D01D6014B
:10019000ED91FC910190F081E02DC6010995892B2C
:1001A00011F02196EECF7E01C701DF91CF911F9113
:1001B0000F91FF90EF90DF90CF900895089580E029
:1001C00090E00895FC01538D448D252F30E0842F5D
:1001D00090E0821B930B541710F0CF96089501976F
:1001E0000895FC01918D828D981761F0828DDF0159
:1001F000A80FB11D5D968C91928D9F5F9F73928F1A
:1002000090E008958FEF9FEF0895FC01918D828D0E
:10021000981731F0828DE80FF11D858D90E00895DB
:100220008FEF9FEF0895FC01918D228D892F90E033
:10023000805C9F4F821B91098F739927089583E6F5
:1002400091E00E94130121E0892B09F420E0822F24
:100250000895FC01848DDF01A80FB11DA35ABF4F83
:100260002C91848D90E001968F739927848FA689B5
:10027000B7892C93A089B1898C91837080648C9309
:10028000938D848D981306C00288F389E02D8081B8
:100290008F7D80830895EF92FF920F931F93CF93EA
:1002A000DF93EC0181E0888F9B8D8C8D981305C0C6
:1002B000E889F989808185FD26C0F62E0B8D10E036
:1002C0000F5F1F4F0F731127E02E8C8DE8120CC0AB
:1002D0000FB607FCFACFE889F989808185FFF5CF51
:1002E000CE010E942901F1CF8B8DFE01E80FF11D97
:1002F000E35AFF4FF0829FB7F8940B8FEA89FB898E
:10030000808180620AC09FB7F894EE89FF8960837C
:10031000E889F98980818370806480839FBF81E050
:1003200090E0DF91CF911F910F91FF90EF90089592
:10033000CF93DF93EC01888D8823C9F0EA89FB898C
:10034000808185FD05C0A889B9898C9186FD0FC083
:100350000FB607FCF5CF808185FFF2CFA889B98958
:100360008C9185FFEDCFCE010E942901E7CFDF916F
:10037000CF91089580E090E0892B29F00E941F0121
:1003800081110C9400000895833081F028F48130AD
:1003900099F08230A1F008958730A9F08830B9F043
:1003A0008430D1F4809180008F7D03C080918000E3
:1003B0008F7780938000089584B58F7702C084B5CD
:1003C0008F7D84BD08958091B0008F7703C08091A8
:1003D000B0008F7D8093B0000895CF93DF93282FD6
:1003E00030E0F901E255FF4F8491F901E656FF4FE5
:1003F000D491F901EA57FF4FC491CC2391F08111B8
:100400000E94C401EC2FF0E0EE0FFF1FE458FF4FF5
:10041000A591B491EC91ED2381E090E021F480E08E
:1004200002C080E090E0DF91CF910895EF92FF92BB
:100430001F93CF93DF9310E0C7E0D0E083E7E82E6F
:10044000F12C809148020E94ED010197D1F7C7017C
:100450000197F1F7809148020E94ED0181309105EA
:1004600061F40C2E01C0880F0A94EAF7182B8091D2
:1004700048020E94ED01892BD1F7219710F7812FB7
:10048000DF91CF911F91FF90EF9008951F93CF932D
:10049000DF93282F30E0F901E255FF4F8491F901F5
:1004A000E656FF4FD491F901EA57FF4FC491CC2390
:1004B000C1F0162F81110E94C401EC2FF0E0EE0F65
:1004C000FF1FEE58FF4FA591B4919FB7F8941111FB
:1004D00004C08C91D095D82302C0EC91DE2BDC9324
:1004E0009FBFDF91CF911F910895CF93DF9390E04D
:1004F000FC01E656FF4F2491FC01EA57FF4F84911F
:10050000882361F190E0880F991FFC01E859FF4FA3
:10051000C591D491FC01EE58FF4FA591B4916111A2
:1005200009C09FB7F8948881209582238883EC9135
:100530002E230BC0623061F49FB7F8948881322F6C
:10054000309583238883EC912E2B2C939FBF06C07C
:100550008FB7F894E8812E2B28838FBFDF91CF913E
:1005600008953FB7F89480915B0190915C01A09150
:100570005D01B0915E0126B5A89B05C02F3F19F023
:100580000196A11DB11D3FBFBA2FA92F982F882713
:10059000820F911DA11DB11DBC01CD0142E0660F6E
:1005A000771F881F991F4A95D1F708958F929F92C0
:1005B000AF92BF92CF92DF92EF92FF92CF93DF93F1
:1005C000C82F6A017B010E94B1024B015C01C60E7B
:1005D000D71EE81EF91ED0E0809148020E94ED016E
:1005E0008C179D0759F00E94B102C616D706E8067F
:1005F000F90690F76FEF7FEFCB0106C00E94B102C2
:10060000681979098A099B09DF91CF91FF90EF90D2
:10061000DF90CF90BF90AF909F908F9008958F9272
:100620009F92AF92BF92CF92DF92EF92FF926B01B7
:100630007C010E94B1024B015C01C114D104E104B0
:10064000F104F1F00E94B102DC01CB018819990993
:10065000AA09BB09883E9340A105B10570F321E0CA
:10066000C21AD108E108F10888EE880E83E0981ECE
:10067000A11CB11CC114D104E104F10419F7DDCFB0
:10068000FF90EF90DF90CF90BF90AF909F908F90B2
:1006900008952FB7F8946091570170915801809197
:1006A000590190915A012FBF08950E94940A611533
:1006B000710579F0FB0101900020E9F73197AF0156
:1006C000461B570BDC01ED91FC910280F381E02D7C
:1006D000099480E090E008958F929F92AF92BF922C
:1006E000EF92FF920F931F93CF93DF93CDB7DEB7B7
:1006F000A1970FB6F894DEBF0FBECDBF7C01FA0103
:10070000CB0119A2223008F42AE08E010F5D1F4FA1
:10071000822E912CA12CB12CBF01A50194010E9425
:100720005409F901CA01015011096A3014F4605DDD
:1007300001C0695CD8016C93232B242B252B61F716
:10074000B801C7010E945703A1960FB6F894DEBF07
:100750000FBECDBFDF91CF911F910F91FF90EF9012
:10076000BF90AF909F908F9008958F929F92AF927D
:10077000BF92CF92DF92EF92FF920F931F93CF938E
:10078000DF936B017C01142F9B01AC010E94890A4D
:10079000882319F062E171E027C046015701E8940F
:1007A000B7F82FEF3FEF4FE75FE7C501B4010E94B5
:1007B000890A81110DC02FEF3FEF4FE75FE7C501B9
:1007C000B4010E94300818161CF466E171E00CC0F8
:1007D0002FEF3FEF4FE75FE4C701B6010E94840AA5
:1007E000181694F46AE171E083E691E0DF91CF910D
:1007F0001F910F91FF90EF90DF90CF90BF90AF903F
:100800009F908F900C9457032FEF3FEF4FE75FECD3
:10081000C701B6010E94300887FDE4CF20E030E038
:10082000A901C701B6010E94300887FF0BC06DE225
:1008300083E691E00E944B01EC01F7FAF094F7F89F
:10084000F09402C0C0E0D0E000E060E070E080E042
:100850009FE3101741F020E030E040E251E40E94B5
:10086000E3090F5FF6CFA70196010E9477096B019C
:100870007C010E94550A4B015C012AE0AB01BC01DE
:1008800083E691E00E946C03C80FD91F1123C9F1C0
:10089000C501B4010E9435089B01AC01C701B60136
:1008A0000E9476096B017C016EE283E691E00E9472
:1008B0004B01C80FD91F20E030E040E251E4C701EE
:1008C000B6010E9496084B015C010E94550A6B011B
:1008D000E12CF12C2AE0B701A60183E691E00E9409
:1008E0006C03C80FD91FC701B6010E9435089B01D0
:1008F000AC01C501B4010E9476096B017C01115065
:10090000D1F6CE01DF91CF911F910F91FF90EF9023
:10091000DF90CF90BF90AF909F908F9008950C94F0
:1009200057031F920F920FB60F9211242F933F93EC
:100930004F935F936F937F938F939F93AF93BF93E7
:10094000EF93FF9383E691E00E942901FF91EF91DD
:10095000BF91AF919F918F917F916F915F914F91D7
:100960003F912F910F900FBE0F901F9018951F92DF
:100970000F920FB60F9211242F938F939F93EF93A3
:10098000FF93E0917301F09174018081E09179010E
:10099000F0917A0182FD12C0908180917C018F5F7D
:1009A0008F7320917D01821751F0E0917C01F0E07E
:1009B000ED59FE4F958F80937C0101C08081FF919E
:1009C000EF919F918F912F910F900FBE0F901F90DD
:1009D00018951F920F920FB60F9211242F933F93E9
:1009E0008F939F93AF93BF9380915701909158013C
:1009F000A0915901B0915A013091560123E0230F83
:100A00002D3720F40196A11DB11D05C026E8230F46
:100A10000296A11DB11D209356018093570190931A
:100A20005801A0935901B0935A0180915B019091B4
:100A30005C01A0915D01B0915E010196A11DB11D07
:100A400080935B0190935C01A0935D01B0935E0184
:100A5000BF91AF919F918F913F912F910F900FBEBA
:100A60000F901F901895CF93DF93E3E6F1E0138288
:100A7000128288EE93E0A0E0B0E084839583A683A1
:100A8000B78384E091E09183808385EC90E0958743
:100A9000848784EC90E09787868780EC90E0918B48
:100AA000808B81EC90E0938B828B82EC90E0958B35
:100AB000848B86EC90E0978B868B118E128E138E32
:100AC000148EE0E0F2E016821782108611861286FC
:100AD00013861486158616861786108A118A128A3E
:100AE000138A148A158AC8E4D2E082E090E09983E0
:100AF00088831A821B821C821D8260E00E9475021C
:100B000061E08881DF91CF910C944602789484B59E
:100B1000826084BD84B5816084BD85B5826085BDF9
:100B200085B5816085BD80916E00816080936E0087
:100B30001092810080918100826080938100809179
:100B4000810081608093810080918000816080932A
:100B500080008091B10084608093B1008091B000EA
:100B600081608093B00080917A00846080937A00E5
:100B700080917A00826080937A0080917A0081600F
:100B800080937A0080917A00806880937A00109236
:100B9000C100109244021092450210924602109237
:100BA0004702109202021092030210920402109265
:100BB00005020E9449036B017C014B015C0148EB7B
:100BC000840E4BE0941EA11CB11C0E9449036C15BD
:100BD0007D058E059F0528F086169706A806B9069E
:100BE000A0F783E691E090934302809342020E9433
:100BF0008C000E9449036093020270930302809369
:100C00000402909305026EE171E08091420290919E
:100C100043020E948F040E9449036B017C014B0137
:100C20005C018AE0880E911CA11CB11C0E94490342
:100C30006C157D058E059F0528F086169706A8067B
:100C4000B906A0F781E0809316020E948C0084EF21
:100C5000C82EDD24D394E12CF12C0E944903672B8C
:100C6000682B692B41F40E944903623071058105AC
:100C7000910508F40EC10E94490300915F01109193
:100C80006001209161013091620160177107820754
:100C9000930740F460935F0170936001809361015A
:100CA0009093620100915F011091600120916101B8
:100CB000309162014B015C01801A910AA20AB30AC9
:100CC000950184010A3F11052105310508F4E1C0B1
:100CD00060935F0170936001809361019093620162
:100CE000C0920E02D0920F02E0921002F092110216
:100CF0001092120210921302109214021092150216
:100D00008091060290910702A0910802B091090219
:100D100080930A0290930B02A0930C02B0930D02F1
:100D20000E944903609306027093070280930802B1
:100D3000909309020E944903609302027093030298
:100D400080930402909305020E9449034B015C01C9
:100D500060E371E080914202909143020E948F040F
:100D60002AE041E050E060E070E080914202909122
:100D700043020E946C0367E371E08091420290910C
:100D800043020E948F042AE0B501A401809142022F
:100D9000909143020E946C0369E371E080914202EA
:100DA000909143020E948F04809106029091070265
:100DB000A0910802B0910902B501A401481B590B8A
:100DC0006A0B7B0B2AE080914202909143020E94C1
:100DD0006C0369E371E080914202909143020E94AA
:100DE0008F044091060250910702609108027091B1
:100DF000090280910A0290910B02A0910C02B0911D
:100E00000D02481B590B6A0B7B0B2AE080914202B2
:100E1000909143020E946C036BE371E08091420267
:100E2000909143020E948F040E944903AB01BC01D0
:100E30002AE080914202909143020E946C03C0918B
:100E40004202D09143026DE371E0CE010E9457034C
:100E50006DE271E0CE010E9457030E9449034B01ED
:100E60005C012B013C0142E0440E511C611C711CD1
:100E70000E944903681579058A059B0558F50E946B
:100E800049036093060270930702809308029093CF
:100E9000090260ED77E080E090E00E940F030E947D
:100EA000490300914A0210914B0220914C0230916B
:100EB0004D02DC01CB01801B910BA20BB30B883ED2
:100EC0009340A105B10560F4012B022B032B09F01F
:100ED000B2C006C0461657066806790648F6CFCF58
:100EE00061E0809148020E94750260E080914802B2
:100EF0000E94460262E170E080E090E00E940F03F1
:100F000061E0809148020E94460260E080914802C0
:100F10000E94750248E250E060E070E080E00E94CC
:100F2000D6024AE550E060E070E081E00E94D6021F
:100F30004AE550E060E070E080E00E94D6020E9446
:100F40001602C82F0E941602D82F0E941602182FD0
:100F50000E941602082F0E9416022D2F30E02C0F3F
:100F6000311D210F311D200F311D90E02817390749
:100F700009F06CC06D2F70E080E090E00E943508B1
:100F800020E030E048EC52E40E94E3094B015C01B0
:100F90006C2F70E080E090E00E9435089B01AC016E
:100FA000C501B4010E9477094B015C01602F70E01C
:100FB00080E090E00E94350820E030E048EC52E408
:100FC0000E94E3092B013C01612F70E080E090E07A
:100FD0000E9435089B01AC01C301B2010E94770950
:100FE0002B013C010E94490360934A0270934B021B
:100FF00080934C0290934D0264E471E083E691E0AB
:101000000E948F0442E0C301B2010E94B5036DE467
:1010100071E083E691E00E948F0442E0C501B401D3
:101020000E94B50360ED77E080E090E00E940F033E
:101030000E94BA0112CE6DE283E691E00E944B015C
:101040002AE041E050E060E070E005C02AE044E0C2
:1010500050E060E070E083E691E00E946C03E2CF34
:101060000E94720808F481E00895E89409C097FB93
:101070003EF490958095709561957F4F8F4F9F4F6F
:101080009923A9F0F92F96E9BB279395F6958795B3
:1010900077956795B795F111F8CFFAF4BB0F11F476
:1010A00060FF1BC06F5F7F4F8F4F9F4F16C088231D
:1010B00011F096E911C0772321F09EE8872F762F53
:1010C00005C0662371F096E8862F70E060E02AF094
:1010D0009A95660F771F881FDAF7880F9695879580
:1010E00097F90895990F0008550FAA0BE0E8FEEF55
:1010F00016161706E807F907C0F012161306E407DC
:10110000F50798F0621B730B840B950B39F40A26D4
:1011100061F0232B242B252B21F408950A2609F4B2
:10112000A140A6958FEF811D811D08950E94A908F9
:101130000C941A090E940C0938F00E94130920F03F
:10114000952311F00C9403090C94090911240C94B3
:101150004E090E942B0970F3959FC1F3950F50E043
:10116000551F629FF001729FBB27F00DB11D639F59
:10117000AA27F00DB11DAA1F649F6627B00DA11DFF
:10118000661F829F2227B00DA11D621F739FB00DA5
:10119000A11D621F839FA00D611D221F749F332715
:1011A000A00D611D231F849F600D211D822F762FAE
:1011B0006A2F11249F5750409AF0F1F088234AF08B
:1011C000EE0FFF1FBB1F661F771F881F91505040F7
:1011D000A9F79E3F510580F00C9403090C944E0929
:1011E0005F3FE4F3983ED4F3869577956795B7957E
:1011F000F795E7959F5FC1F7FE2B880F911D969598
:10120000879597F9089597F99F6780E870E060E007
:1012100008959FEF80EC089500240A94161617068F
:1012200018060906089500240A94121613061406D7
:1012300005060895092E0394000C11F4882352F03A
:10124000BB0F40F4BF2B11F460FF04C06F5F7F4FF2
:101250008F4F9F4F089557FD9058440F551F59F0D9
:101260005F3F71F04795880F97FB991F61F09F3F93
:1012700079F087950895121613061406551FF2CFBC
:101280004695F1DF08C0161617061806991FF1CF0C
:1012900086957105610508940895E894BB27662733
:1012A0007727CB0197F90895A1E21A2EAA1BBB1B41
:1012B000FD010DC0AA1FBB1FEE1FFF1FA217B30722
:1012C000E407F50720F0A21BB30BE40BF50B661F38
:1012D000771F881F991F1A9469F7609570958095FC
:1012E00090959B01AC01BD01CF0108955058BB27DB
:1012F000AA270E948E090C941A090E940C0938F042
:101300000E94130920F039F49F3F19F426F40C943D
:1013100009090EF4E095E7FB0C940309E92F0E94FC
:101320002B0958F3BA17620773078407950720F053
:1013300079F4A6F50C944D090EF4E0950B2EBA2F16
:10134000A02D0B01B90190010C01CA01A0011124CB
:10135000FF27591B99F0593F50F4503E68F11A1677
:10136000F040A22F232F342F4427585FF3CF469508
:1013700037952795A795F0405395C9F77EF41F162A
:10138000BA0B620B730B840BBAF09150A1F0FF0FF4
:10139000BB1F661F771F881FC2F70EC0BA0F621FE0
:1013A000731F841F48F4879577956795B795F795D0
:1013B0009E3F08F0B0CF9395880F08F09927EE0F65
:1013C0009795879508950E94F7090C941A090E9431
:1013D000130958F00E940C0940F029F45F3F29F0EE
:1013E0000C94030951110C944E090C9409090E94A4
:1013F0002B0968F39923B1F3552391F3951B550BF2
:10140000BB27AA2762177307840738F09F5F5F4FD7
:10141000220F331F441FAA1FA9F335D00E2E3AF016
:10142000E0E832D091505040E695001CCAF72BD02E
:10143000FE2F29D0660F771F881FBB1F261737077F
:101440004807AB07B0E809F0BB0B802DBF01FF27B1
:1014500093585F4F3AF09E3F510578F00C94030982
:101460000C944E095F3FE4F3983ED4F3869577954C
:101470006795B795F7959F5FC9F7880F911D96956A
:10148000879597F90895E1E0660F771F881FBB1FC6
:10149000621773078407BA0720F0621B730B840B73
:1014A000BA0BEE1F88F7E09508950E94330988F083
:1014B0009F5798F0B92F9927B751B0F0E1F0660F18
:1014C000771F881F991F1AF0BA95C9F714C0B13059
:1014D00091F00E944D09B1E008950C944D09672FD9
:1014E000782F8827B85F39F0B93FCCF38695779588
:1014F0006795B395D9F73EF4909580957095619571
:101500007F4F8F4F9F4F08950E94720808F48FEF0E
:1015100008950E947208880B990B0895EE0FFF1F23
:101520000590F491E02D099481E090E0F8940C94FA
:06153000990AF894FFCFB8
:10153600000000004B01B400E20098011301F10025
:1015460005016E616E00696E66006F766600564D27
:101556004450565F317C315F564D4450560D0A005B
:10156600564D4450455F003A323A007C005F564D76
:1015760044504500EC98A8EB8F843A2000EC8AB5DD
:06158600EB8F843A200007
:107E0000112484B714BE81FFF0D085E080938100F7
:107E100082E08093C00088E18093C10086E0809377
:107E2000C20080E18093C4008EE0C9D0259A86E02C
:107E300020E33CEF91E0309385002093840096BBD3
:107E4000B09BFECF1D9AA8958150A9F7CC24DD24C4
:107E500088248394B5E0AB2EA1E19A2EF3E0BF2EE7
:107E6000A2D0813461F49FD0082FAFD0023811F036
:107E7000013811F484E001C083E08DD089C08234E0
:107E800011F484E103C0853419F485E0A6D080C0E4
:107E9000853579F488D0E82EFF2485D0082F10E0AE
:107EA000102F00270E291F29000F111F8ED06801E7
:107EB0006FC0863521F484E090D080E0DECF843638
:107EC00009F040C070D06FD0082F6DD080E0C81688
:107ED00080E7D80618F4F601B7BEE895C0E0D1E017
:107EE00062D089930C17E1F7F0E0CF16F0E7DF06D8
:107EF00018F0F601B7BEE89568D007B600FCFDCFD4
:107F0000A601A0E0B1E02C9130E011968C91119780
:107F100090E0982F8827822B932B1296FA010C0160
:107F200087BEE89511244E5F5F4FF1E0A038BF0790
:107F300051F7F601A7BEE89507B600FCFDCF97BE46
:107F4000E89526C08437B1F42ED02DD0F82E2BD052
:107F50003CD0F601EF2C8F010F5F1F4F84911BD097
:107F6000EA94F801C1F70894C11CD11CFA94CF0C13
:107F7000D11C0EC0853739F428D08EE10CD085E9AC
:107F80000AD08FE07ACF813511F488E018D01DD067
:107F900080E101D065CF982F8091C00085FFFCCF94
:107FA0009093C60008958091C00087FFFCCF809118
:107FB000C00084FD01C0A8958091C6000895E0E648
:107FC000F0E098E1908380830895EDDF803219F02E
:107FD00088E0F5DFFFCF84E1DECF1F93182FE3DFCA
:107FE0001150E9F7F2DF1F91089580E0E8DFEE27F6
:047FF000FF270994CA
:027FFE00040479
:0400000300007E007B
:00000001FF